{
  "_format": "hh-sol-artifact-1",
  "contractName": "SimpleIdentityVerification",
  "sourceName": "contracts/SimpleIdentityVerification.sol",
  "abi": [
    {
      "inputs": [],
      "stateMutability": "nonpayable",
      "type": "constructor"
    },
    {
      "anonymous": false,
      "inputs": [
        {
          "indexed": true,
          "internalType": "address",
          "name": "owner",
          "type": "address"
        },
        {
          "indexed": false,
          "internalType": "string",
          "name": "attributeName",
          "type": "string"
        }
      ],
      "name": "AttributeVerified",
      "type": "event"
    },
    {
      "anonymous": false,
      "inputs": [
        {
          "indexed": true,
          "internalType": "address",
          "name": "owner",
          "type": "address"
        }
      ],
      "name": "IdentityCreated",
      "type": "event"
    },
    {
      "inputs": [
        {
          "internalType": "address",
          "name": "_verifier",
          "type": "address"
        }
      ],
      "name": "addVerifier",
      "outputs": [],
      "stateMutability": "nonpayable",
      "type": "function"
    },
    {
      "inputs": [
        {
          "internalType": "address",
          "name": "",
          "type": "address"
        }
      ],
      "name": "approvedVerifiers",
      "outputs": [
        {
          "internalType": "bool",
          "name": "",
          "type": "bool"
        }
      ],
      "stateMutability": "view",
      "type": "function"
    },
    {
      "inputs": [
        {
          "internalType": "bytes32",
          "name": "_dataHash",
          "type": "bytes32"
        }
      ],
      "name": "createIdentity",
      "outputs": [],
      "stateMutability": "nonpayable",
      "type": "function"
    },
    {
      "inputs": [
        {
          "internalType": "address",
          "name": "_user",
          "type": "address"
        },
        {
          "internalType": "string",
          "name": "_attributeName",
          "type": "string"
        }
      ],
      "name": "getAttributeVerifier",
      "outputs": [
        {
          "internalType": "address",
          "name": "",
          "type": "address"
        }
      ],
      "stateMutability": "view",
      "type": "function"
    },
    {
      "inputs": [
        {
          "internalType": "address",
          "name": "",
          "type": "address"
        }
      ],
      "name": "identities",
      "outputs": [
        {
          "internalType": "address",
          "name": "owner",
          "type": "address"
        },
        {
          "internalType": "bytes32",
          "name": "dataHash",
          "type": "bytes32"
        }
      ],
      "stateMutability": "view",
      "type": "function"
    },
    {
      "inputs": [
        {
          "internalType": "address",
          "name": "_user",
          "type": "address"
        },
        {
          "internalType": "string",
          "name": "_attributeName",
          "type": "string"
        }
      ],
      "name": "isAttributeVerified",
      "outputs": [
        {
          "internalType": "bool",
          "name": "",
          "type": "bool"
        }
      ],
      "stateMutability": "view",
      "type": "function"
    },
    {
      "inputs": [
        {
          "internalType": "bytes32",
          "name": "_newDataHash",
          "type": "bytes32"
        }
      ],
      "name": "updateIdentity",
      "outputs": [],
      "stateMutability": "nonpayable",
      "type": "function"
    },
    {
      "inputs": [
        {
          "internalType": "address",
          "name": "_user",
          "type": "address"
        },
        {
          "internalType": "string",
          "name": "_attributeName",
          "type": "string"
        }
      ],
      "name": "verifyAttribute",
      "outputs": [],
      "stateMutability": "nonpayable",
      "type": "function"
    }
  ],
  "bytecode": "0x608060405234801561001057600080fd5b5060018060003373ffffffffffffffffffffffffffffffffffffffff1673ffffffffffffffffffffffffffffffffffffffff16815260200190815260200160002060006101000a81548160ff021916908315150217905550610f74806100776000396000f3fe608060405234801561001057600080fd5b50600436106100885760003560e01c80639000b3d61161005b5780639000b3d614610111578063a720433b1461012d578063d788b2e01461015d578063f653b81e1461018d57610088565b8063216b00891461008d57806346bf77bb146100a95780634878f450146100c557806362c3fc2e146100f5575b600080fd5b6100a760048036038101906100a29190610a90565b6101be565b005b6100c360048036038101906100be9190610a3c565b610363565b005b6100df60048036038101906100da9190610a3c565b610622565b6040516100ec9190610c37565b60405180910390f35b61010f600480360381019061010a9190610a90565b610697565b005b61012b60048036038101906101269190610a13565b6107af565b005b61014760048036038101906101429190610a3c565b610895565b6040516101549190610bf3565b60405180910390f35b61017760048036038101906101729190610a13565b61091d565b6040516101849190610c37565b60405180910390f35b6101a760048036038101906101a29190610a13565b61093d565b6040516101b5929190610c0e565b60405180910390f35b600073ffffffffffffffffffffffffffffffffffffffff166000803373ffffffffffffffffffffffffffffffffffffffff1673ffffffffffffffffffffffffffffffffffffffff16815260200190815260200160002060000160009054906101000a900473ffffffffffffffffffffffffffffffffffffffff1673ffffffffffffffffffffffffffffffffffffffff161461028e576040517f08c379a000000000000000000000000000000000000000000000000000000000815260040161028590610cd4565b60405180910390fd5b60008060003373ffffffffffffffffffffffffffffffffffffffff1673ffffffffffffffffffffffffffffffffffffffff1681526020019081526020016000209050338160000160006101000a81548173ffffffffffffffffffffffffffffffffffffffff021916908373ffffffffffffffffffffffffffffffffffffffff1602179055508181600101819055503373ffffffffffffffffffffffffffffffffffffffff167fac993fde3b9423ff59e4a23cded8e89074c9c8740920d1d870f586ba7c5c8cf060405160405180910390a25050565b600160003373ffffffffffffffffffffffffffffffffffffffff1673ffffffffffffffffffffffffffffffffffffffff16815260200190815260200160002060009054906101000a900460ff166103ef576040517f08c379a00000000000000000000000000000000000000000000000000000000081526004016103e690610c74565b60405180910390fd5b8173ffffffffffffffffffffffffffffffffffffffff166000808473ffffffffffffffffffffffffffffffffffffffff1673ffffffffffffffffffffffffffffffffffffffff16815260200190815260200160002060000160009054906101000a900473ffffffffffffffffffffffffffffffffffffffff1673ffffffffffffffffffffffffffffffffffffffff16146104be576040517f08c379a00000000000000000000000000000000000000000000000000000000081526004016104b590610cb4565b60405180910390fd5b60016000808473ffffffffffffffffffffffffffffffffffffffff1673ffffffffffffffffffffffffffffffffffffffff1681526020019081526020016000206002018260405161050f9190610bdc565b908152602001604051809103902060006101000a81548160ff021916908315150217905550336000808473ffffffffffffffffffffffffffffffffffffffff1673ffffffffffffffffffffffffffffffffffffffff168152602001908152602001600020600301826040516105849190610bdc565b908152602001604051809103902060006101000a81548173ffffffffffffffffffffffffffffffffffffffff021916908373ffffffffffffffffffffffffffffffffffffffff1602179055508173ffffffffffffffffffffffffffffffffffffffff167f0240ac48fe407dd4e87ab5566cc61e78c419f8d624ea9a90adafc01540cd96d8826040516106169190610c52565b60405180910390a25050565b60008060008473ffffffffffffffffffffffffffffffffffffffff1673ffffffffffffffffffffffffffffffffffffffff168152602001908152602001600020600201826040516106739190610bdc565b908152602001604051809103902060009054906101000a900460ff16905092915050565b3373ffffffffffffffffffffffffffffffffffffffff166000803373ffffffffffffffffffffffffffffffffffffffff1673ffffffffffffffffffffffffffffffffffffffff16815260200190815260200160002060000160009054906101000a900473ffffffffffffffffffffffffffffffffffffffff1673ffffffffffffffffffffffffffffffffffffffff1614610766576040517f08c379a000000000000000000000000000000000000000000000000000000000815260040161075d90610c94565b60405180910390fd5b806000803373ffffffffffffffffffffffffffffffffffffffff1673ffffffffffffffffffffffffffffffffffffffff1681526020019081526020016000206001018190555050565b600160003373ffffffffffffffffffffffffffffffffffffffff1673ffffffffffffffffffffffffffffffffffffffff16815260200190815260200160002060009054906101000a900460ff1661083b576040517f08c379a000000000000000000000000000000000000000000000000000000000815260040161083290610c74565b60405180910390fd5b60018060008373ffffffffffffffffffffffffffffffffffffffff1673ffffffffffffffffffffffffffffffffffffffff16815260200190815260200160002060006101000a81548160ff02191690831515021790555050565b60008060008473ffffffffffffffffffffffffffffffffffffffff1673ffffffffffffffffffffffffffffffffffffffff168152602001908152602001600020600301826040516108e69190610bdc565b908152602001604051809103902060009054906101000a900473ffffffffffffffffffffffffffffffffffffffff16905092915050565b60016020528060005260406000206000915054906101000a900460ff1681565b60006020528060005260406000206000915090508060000160009054906101000a900473ffffffffffffffffffffffffffffffffffffffff16908060010154905082565b600061099461098f84610d19565b610cf4565b9050828152602081018484840111156109ac57600080fd5b6109b7848285610db9565b509392505050565b6000813590506109ce81610f10565b92915050565b6000813590506109e381610f27565b92915050565b600082601f8301126109fa57600080fd5b8135610a0a848260208601610981565b91505092915050565b600060208284031215610a2557600080fd5b6000610a33848285016109bf565b91505092915050565b60008060408385031215610a4f57600080fd5b6000610a5d858286016109bf565b925050602083013567ffffffffffffffff811115610a7a57600080fd5b610a86858286016109e9565b9150509250929050565b600060208284031215610aa257600080fd5b6000610ab0848285016109d4565b91505092915050565b610ac281610d71565b82525050565b610ad181610d83565b82525050565b610ae081610d8f565b82525050565b6000610af182610d4a565b610afb8185610d55565b9350610b0b818560208601610dc8565b610b1481610e5b565b840191505092915050565b6000610b2a82610d4a565b610b348185610d66565b9350610b44818560208601610dc8565b80840191505092915050565b6000610b5d601883610d55565b9150610b6882610e6c565b602082019050919050565b6000610b80601683610d55565b9150610b8b82610e95565b602082019050919050565b6000610ba3601783610d55565b9150610bae82610ebe565b602082019050919050565b6000610bc6601783610d55565b9150610bd182610ee7565b602082019050919050565b6000610be88284610b1f565b915081905092915050565b6000602082019050610c086000830184610ab9565b92915050565b6000604082019050610c236000830185610ab9565b610c306020830184610ad7565b9392505050565b6000602082019050610c4c6000830184610ac8565b92915050565b60006020820190508181036000830152610c6c8184610ae6565b905092915050565b60006020820190508181036000830152610c8d81610b50565b9050919050565b60006020820190508181036000830152610cad81610b73565b9050919050565b60006020820190508181036000830152610ccd81610b96565b9050919050565b60006020820190508181036000830152610ced81610bb9565b9050919050565b6000610cfe610d0f565b9050610d0a8282610dfb565b919050565b6000604051905090565b600067ffffffffffffffff821115610d3457610d33610e2c565b5b610d3d82610e5b565b9050602081019050919050565b600081519050919050565b600082825260208201905092915050565b600081905092915050565b6000610d7c82610d99565b9050919050565b60008115159050919050565b6000819050919050565b600073ffffffffffffffffffffffffffffffffffffffff82169050919050565b82818337600083830152505050565b60005b83811015610de6578082015181840152602081019050610dcb565b83811115610df5576000848401525b50505050565b610e0482610e5b565b810181811067ffffffffffffffff82111715610e2357610e22610e2c565b5b80604052505050565b7f4e487b7100000000000000000000000000000000000000000000000000000000600052604160045260246000fd5b6000601f19601f8301169050919050565b7f4e6f7420616e20617070726f7665642076657269666965720000000000000000600082015250565b7f4e6f7420746865206964656e74697479206f776e657200000000000000000000600082015250565b7f4964656e7469747920646f6573206e6f74206578697374000000000000000000600082015250565b7f4964656e7469747920616c726561647920657869737473000000000000000000600082015250565b610f1981610d71565b8114610f2457600080fd5b50565b610f3081610d8f565b8114610f3b57600080fd5b5056fea2646970667358221220300690f03a3a02dcac17590ea903a0563dffc84cc261a5c9fa63c4d436c14f9c64736f6c63430008040033",
  "linkReferences": {},
  "deployedLinkReferences": {}
}